:100000000C94B5000C94D2000C94D2000C94FE0019
:100010000C94D2000C94D4000C94D2000C94D20016
:100020000C94D2000C94D2000C94D2000C94D20008
:100030000C94D2000C94D2000C94D2000C94D200F8
:100040000C94D2000C94D2000C94D2000C94D200E8
:100050000C94D2000C94D2000C94D2000C94D200D8
:100060000C94D2000C94D2006E616E00696E660032
:1000700000407A10F35A00A0724E18090010A5D45F
:10008000E80000E87648170000E40B54020000CABC
:100090009A3B000000E1F505000080969800000002
:1000A00040420F000000A086010000001027000061
:1000B0000000E803000000006400000000000A00E7
:1000C000000000000100000000002C76D888DC67EA
:1000D0004F0823DFC1DFAE59E1B1B796E5E3E45342
:1000E000C63AE651997696E8E6C28426EB898C9B5F
:1000F00062ED407C6FFCEFBC9C9F40F2BAA56FA5FF
:10010000F490055A2AF75C936B6CF9676DC11BFC80
:10011000E0E40D47FEF520E6B500D0ED902E03009B
:10012000943577050080841E080000204E0A0000E8
:1001300000C80C333333330F986E12831141EF8DA7
:100140002114893BE65516CFFEE6DB18D1844B38E7
:100150001BF77C1D901DA4BBE424203284725E2218
:100160008100C9F124ECA1E53D2711241FBECFEF8A
:10017000D8E0DEBFCDBF11E0A0E0B1E0E2E1F8E100
:1001800002C005900D92A232B107D9F712E0A2E2A7
:10019000B1E001C01D92A93BB107E1F70E948403C1
:1001A0000C94070C0C9400001F920F920FB60F9244
:1001B00011248F939F934B9B05C019990FC01999D8
:1001C00016C004C04B9913C0199B06C080914A0108
:1001D00090914B01019707C0199909C080914A017C
:1001E00090914B01019690934B0180934A019F910E
:1001F0008F910F900FBE0F901F9018951F920F9226
:100200000FB60F9211248F939F93199B05C04B99A2
:100210000FC04B9916C004C0199913C04B9B06C060
:1002200080914A0190914B01019607C04B9909C0FA
:1002300080914A0190914B01019790934B018093DB
:100240004A019F918F910F900FBE0F901F901895AC
:1002500084B5836884BD85B5816085BD16BC17BC37
:10026000569A579A0895539821985B9A299AE8E6E6
:10027000F0E0808185608083EBE6F0E08081826041
:100280008083EDE6F0E08081886080837894089533
:1002900060914A0170914B01882777FD8095982FD6
:1002A0000E94CA0823E933EE48EA50E40E94340869
:1002B00060934C0170934D0180934E0190934F01D8
:1002C00008951092C50087E68093C40088E180936A
:1002D000C10086E08093C2000895282F80914201DA
:1002E00090914301009739F48091C00085FFFCCFC5
:1002F0002093C6000895019729F580914401843622
:1003000018F48F5F809344019091450180914401DE
:10031000981781F0E92FF0E0EA5AFE4F8081809330
:10032000C600892F8F5F809345018F3F39F410926B
:10033000450104C0109245011092440110924301FE
:10034000109242010895E0914401F0E0EA5AFE4F14
:1003500080830E946D01809144018F3F11F41092BF
:10036000440108951F93CF93DF9381E090E0909331
:1003700043018093420110E0C5E5D2E006C0AB5ACC
:10038000BD4F8C910E94A3011F5FFE0101900020D0
:10039000E9F73197E555F240A12FB0E0AE17BF075E
:1003A00070F38091C00085FF02C01092C600DF91FB
:1003B000CF911F910895CF93DF93CDB7DEB72C97E0
:1003C0000FB6F894DEBF0FBECDBFADB7BEB7119666
:1003D000E5E5F2E0FA83E983E0E0F1E01396FC93CF
:1003E000EE93129714966D937D938D939C9317972C
:1003F00018962D933D934D935C931B970E94850B0C
:10040000EDB7FEB73C960FB6F894FEBF0FBEEDBF3A
:100410000E94B201DF91CF910895EF92FF920F9366
:100420001F935F9A20E030E04FE753E40E94D10928
:100430002AE037ED43E25CE30E94D1090E940509FE
:100440007B018C01609346017093470180934801C2
:100450009093490120E030E04FE753E40E94CD093A
:1004600018162CF480E090E0AFE7B3E40EC0C801AA
:10047000B70120E030E040E050E00E9430088823DF
:1004800064F480E090E0A0E0B0E0809346019093B7
:100490004701A0934801B0934901609146017091D2
:1004A000470180914801909149010E949C0867BDD5
:1004B0001F910F91FF90EF900895EF92FF920F938D
:1004C0001F935F9820E030E04FE753E40E94D1098A
:1004D0002AE037ED43E25CE30E94D1090E9405095E
:1004E0007B018C0160934601709347018093480122
:1004F0009093490120E030E04FE753E40E94CD099A
:1005000018162CF480E090E0AFE7B3E40EC0C80109
:10051000B70120E030E040E050E00E94300888233E
:1005200064F480E090E0A0E0B0E080934601909316
:100530004701A0934801B093490160914601709131
:10054000470180914801909149010E949C0867BD34
:100550001F910F91FF90EF9008956F927F928F926D
:100560009F92AF92BF92CF92DF92EF92FF920F9342
:100570001F939B01AC018AE097EDA3E2BDE380935A
:100580003E0190933F01A0934001B093410180E070
:1005900090E0A0E2B3E480933A0190933B01A093F2
:1005A0003C01B0933D018CEC9CEBACE0BBE2809352
:1005B000360190933701A0933801B093390160E080
:1005C00070E88DEE93E40E94CB077B018C01609371
:1005D0002A0170932B0180932C0190932D0120917F
:1005E00026013091270140912801509129010E9454
:1005F000CB073B014C016093320170933301809330
:10060000340190933501C801B70120912E0130913A
:100610002F0140913001509131010E94CC075B01C4
:100620006C0160932E0170932F01809330019093A1
:100630003101C801B7012AE037ED43E25DE30E94D2
:10064000D1097B018C01C601B5012CEC3CEB4CE0DF
:100650005BE20E94D1099B01AC01C801B7010E9475
:10066000CC077B018C01C401B30120E030E040E203
:1006700053E40E94D1099B01AC01C801B7010E945B
:10068000CC077B018C01609322017093230180933E
:1006900024019093250120E030E040E050E00E94EA
:1006A000CD0918162CF4C801B7010E945D020FC0D5
:1006B000C801B70120E030E040E050E00E9430087F
:1006C00088232CF4C801B70190580E940D02809134
:1006D0002A0190912B01A0912C01B0912D018093C2
:1006E000260190932701A0932801B09329011F911F
:1006F0000F91FF90EF90DF90CF90BF90AF909F90C1
:100700008F907F906F900895EF92FF920F931F93B9
:10071000CF93DF930E9428010E9433011092C500FD
:1007200087E68093C40088E18093C10086E08093CF
:10073000C20060914A0170914B01882777FD809536
:10074000982F0E94CA080E94AD02C1E0D0E08091BB
:10075000500190915101892BC1F460914A0170912F
:100760004B01882777FD8095982F0E94CA080E9428
:10077000AD0260914A0170914B01882777FD809509
:10078000982F0E94CA080E944801E0902201F09030
:1007900023010091240110912501C801B7012DEC1E
:1007A0003CEC4CEC5DE30E943008882364F5C80102
:1007B000B7012DEC3CEC4CEC5DEB0E94CD0918161A
:1007C00014F58091500190915101892BE1F460E082
:1007D00070E080E090E00E940D0260914C01709109
:1007E0004D0180914E0190914F0120914601309131
:1007F000470140914801509149010E94DB01D0938B
:100800005101C09350018091500190915101019785
:1008100009F09DCF8091520190915301A091540114
:10082000B0915501813523EC920720E0A20720E02A
:10083000B2075CF40196A11DB11D80935201909303
:100840005301A0935401B0935501809152019091AE
:100850005301A0915401B09155018055934CA04093
:10086000B0400CF474CF10925201109253011092C8
:1008700054011092550110925101109250011092A2
:100880004B0110924A0163CFA1E1B0E0EAE4F4E049
:100890000C94340A3C017F876E876A01FC01178241
:1008A0001682838181FD03C06FEF7FEF6FC39E01CE
:1008B0002F5F3F4F398B288BF3012381EE85FF8516
:1008C00023FD859123FF8191FF87EE87882309F41B
:1008D0005AC3853251F4EE85FF8523FD859123FFB0
:1008E0008191FF87EE87853229F490E0B3010E9461
:1008F000590BE2CF982F10E0882499241032B0F4DD
:100900009B3269F09C3228F4903251F0933271F4AA
:100910000BC09D3239F0903349F4116028C0126049
:10092000146025C0186023C0106121C017FD2AC0C3
:10093000892F80538A3078F416FF06C0FAE09F9E14
:10094000902C1124980E13C03AE0839E802C112421
:10095000880E10620CC09E3221F416FD14C3106480
:1009600006C09C3611F4106802C0983659F4EE8522
:10097000FF8523FD959123FF9191FF87EE879923B2
:1009800009F0BCCF892F8554833020F4812F8061FA
:10099000905E07C0892F8556833008F09FC1812F54
:1009A0008F7E86FD02C076E0972E6FE3F62EF8224A
:1009B000953619F4F0E4FF2A07C0963619F420E8BA
:1009C000F22A02C091109A94F7FE0AC03BE339154F
:1009D00018F45CE3B52E02C0B92CB39427E009C02B
:1009E00047E0491520F4BB2447E0942EF7CF292D8A
:1009F000BB24C60104969D878C87F60160817181B6
:100A000082819381AE014F5F5F4F0B2D0E946B0A75
:100A10006C010981202E332400FF04C003FD02C0B5
:100A20001DE209C0F1FE02C01BE205C0F2FC02C0DB
:100A300010E001C010E2C1018C709070892BB9F1F7
:100A4000112311F483E001C084E0881510F088249C
:100A50000AC0881AF3FC07C080E290E0B3010E944C
:100A6000590B8A94C9F7112329F0812F90E0B30123
:100A70000E94590B23FE03C008E610E00EC00CE6EE
:100A800010E00BC0E114F10409F0805290E0B301D2
:100A90000E94590B0F5F1F4F05C0EF2CFF24F0E1A0
:100AA000EF22FF24F8018491882361F714C1F7FE37
:100AB00012C0BC0C24FE04C08A81813309F4BA94AC
:100AC0001B141CF0BB24B3942DC0F8E0FB1550F5AB
:100AD00038E0B32E27C0F6FC25C0892D90E08C1598
:100AE0009D054CF02CEFC2162FEFD20624F030E813
:100AF000F32A01C09A94992049F0E2E0F0E0EC0F6B
:100B0000FD1FE90DF11D80818033A1F3F7FE0AC0BE
:100B1000B92CB394892D90E0C816D90614F0992405
:100B200001C09C18F7FC03C025E030E009C01C148C
:100B30001D041CF021E030E003C096012F5F3F4F01
:100B4000112311F02F5F3F4F992029F0892D90E05C
:100B50000196280F391F882D90E02817390714F0C7
:100B6000882401C0821A4F2C5524C20189709070CC
:100B7000892B39F008C080E290E0B3010E94590B44
:100B80008A948820C1F7112329F0812F90E0B301C6
:100B90000E94590B43FE07C008C080E390E0B301F8
:100BA0000E94590B8A948820C1F7F7FE46C086013F
:100BB000D7FE02C000E010E076010894E11CF11CB1
:100BC000E01AF10A41E050E04C0F5D1FE40EF51E03
:100BD00026014B185108892D90E0AA24BB24A81A9D
:100BE000B90A5FEF0F3F150729F48EE290E0B301D9
:100BF0000E94590BC016D10634F0401651061CF461
:100C0000F701808101C080E3015010400894E11C8D
:100C1000F11C0A151B052CF090E0B3010E94590B42
:100C2000E0CF0C151D0539F49A81963318F49533ED
:100C300011F424FE81E390E04BC08A81813309F0F6
:100C40000F7E90E0B3010E94590B9920A1F08EE233
:100C500090E0B3010E94590B12E0E1E0F0E0EC0FEC
:100C6000FD1FE10FF11D1F5F808190E0B3010E9425
:100C7000590B9A9491F744FC03C085E690E002C0BA
:100C800085E490E0B3010E94590BD7FC05C0C11464
:100C9000D10441F404FF06C0D094C194D108D39488
:100CA0008DE201C08BE290E0B3010E94590B80E31A
:100CB00005C08F5F26EF3FEFC20ED31E3AE0C3168A
:100CC000D104BCF790E0B3010E94590BC601C09655
:100CD000B3010E94590BCC84DD8452C1933631F0AC
:100CE000933799F0933509F059C023C0F6018081FC
:100CF00089835E010894A11CB11C22E030E0C20E81
:100D0000D31E21E0E22EF12C12C0F601A080B180AA
:100D100016FD03C06FEF7FEF02C0692D70E022E087
:100D200030E0C20ED31EC5010E944E0B7C011F771E
:100D300013C0F601A080B18016FD03C06FEF7FEFF6
:100D400002C0692D70E022E030E0C20ED31EC50162
:100D50000E94430B7C01106813FF07C01BC080E298
:100D600090E0B3010E94590B8A94882D90E0E81618
:100D7000F906A8F30FC0F50117FD859117FF8191C2
:100D80005F0190E0B3010E94590B81108A9408948E
:100D9000E108F108E114F10471F7F2C0943611F0A2
:100DA000993689F517FF08C0F6012081318142810B
:100DB000538184E090E00AC0F601808191819C011A
:100DC000442737FD4095542F82E090E0C80ED91E8D
:100DD0009FE6F92EF12257FF09C0509540953095B6
:100DE00021953F4F4F4F5F4F90E8F92ACA01B90153
:100DF000AE014F5F5F4F2AE030E00E94A90BE82E62
:100E0000E889EE1A41C0953721F41F7E2AE030E0D0
:100E10001CC0197F9F3661F0903720F4983509F097
:100E2000B2C00FC0903739F0983709F0ACC004C099
:100E300028E030E00AC0106114FD146020E130E0C9
:100E400004C014FD166020E132E017FF08C0F6016F
:100E5000608171818281938144E050E008C0F60195
:100E600080819181BC0180E090E042E050E0C40EBE
:100E7000D51EAE014F5F5F4F0E94A90BE82E588927
:100E8000E51A8FE7F82EF122F6FE0BC08EEFF8225E
:100E9000E91438F4F4FE07C0F2FC05C09FEEF92215
:100EA00002C01E2D01C0192DF4FE0DC0FE01EE0D75
:100EB000F11D8081803319F4E9EEFE2208C01F5F26
:100EC000F2FE05C003C08F2D867809F01F5F0F2D3D
:100ED000F3FC14C0F0FE0FC0181510F09E2C0BC0D0
:100EE0009E2C980C911A182D06C080E290E0B30158
:100EF0000E94590B1F5F1815C0F304C0181510F499
:100F0000811A01C0882404FF0FC080E390E0B30180
:100F10000E94590B02FF1DC001FD03C088E790E04D
:100F20000EC088E590E00BC0802F867891F001FF1D
:100F300002C08BE201C080E2F7FC8DE290E0B301D9
:100F40000E94590B06C080E390E0B3010E94590B48
:100F50009A94E914C0F3EA94E1E0F0E0EC0FFD1F8D
:100F6000EE0DF11D808190E0B3010E94590BEE203F
:100F700091F706C080E290E0B3010E94590B8A9479
:100F80008820C1F799CCF30166817781CB01619606
:100F9000E2E10C94500A5058BB27AA270ED0ACC1EE
:100FA0009DD130F0A2D120F031F49F3F11F41EF416
:100FB00092C10EF4E095E7FB5FC1E92FAED180F35B
:100FC000BA17620773078407950718F071F49EF546
:100FD000DDC10EF4E0950B2EBA2FA02D0B01B90147
:100FE00090010C01CA01A0011124FF27591B99F09F
:100FF000593F50F4503E68F11A16F040A22F232FAB
:10100000342F4427585FF3CF469537952795A795FA
:10101000F0405395C9F77EF41F16BA0B620B730BA1
:10102000840BBAF09150A1F0FF0FBB1F661F771F12
:10103000881FC2F70EC0BA0F621F731F841F48F4C7
:10104000879577956795B795F7959E3F08F0B3CF4D
:101050009395880F08F09927EE0F97958795089537
:10106000E7D008F481E008950CD046C13ED140F0AD
:1010700035D130F021F45F3F19F0FEC0511187C126
:101080002AC14BD198F39923C9F35523B1F3951B8A
:10109000550BBB27AA2762177307840738F09F5F99
:1010A0005F4F220F331F441FAA1FA9F333D00E2E08
:1010B0003AF0E0E830D091505040E695001CCAF775
:1010C00029D0FE2F27D0660F771F881FBB1F26173A
:1010D00037074807AB07B0E809F0BB0B802DBF010D
:1010E000FF2793585F4F2AF09E3F510568F0C4C018
:1010F0004EC15F3FECF3983EDCF38695779567959C
:10110000B795F7959F5FC9F7880F911D96958795BD
:1011100097F90895E1E0660F771F881FBB1F6217DC
:1011200073078407BA0720F0621B730B840BBA0B9A
:10113000EE1F88F7E0950895F8D088F09F5790F05B
:10114000B92F9927B751A0F0D1F0660F771F881FEC
:10115000991F1AF0BA95C9F712C0B13081F016D1B3
:10116000B1E0089513C1672F782F8827B85F39F051
:10117000B93FCCF3869577956795B395D9F73EF44B
:1011800090958095709561957F4F8F4F9F4F0895F3
:10119000E89409C097FB3EF4909580957095619511
:1011A0007F4F8F4F9F4F9923A9F0F92F96E9BB27C7
:1011B0009395F695879577956795B795F111F8CF43
:1011C000FAF4BB0F11F460FF1BC06F5F7F4F8F4FAE
:1011D0009F4F16C0882311F096E911C0772321F0A4
:1011E0009EE8872F762F05C0662371F096E8862F3C
:1011F00070E060E02AF09A95660F771F881FDAF793
:10120000880F9695879597F90895A9D080F09F3714
:1012100040F491110EF0BBC060E070E080E89FEBFD
:10122000089526F41B16611D711D811D2BC045C03C
:10123000990F0008550FAA0BE0E8FEEF16161706E7
:10124000E807F907C0F012161306E407F50798F04F
:10125000621B730B840B950B39F40A2661F0232B68
:10126000242B252B21F408950A2609F4A140A695E4
:101270008FEF811D811D089597F99F6780E870E0C9
:1012800060E00895882371F4772321F09850872B2C
:10129000762F07C0662311F499270DC09051862B35
:1012A00070E060E02AF09A95660F771F881FDAF7E2
:1012B000880F9695879597F908959F3F31F0915043
:1012C00020F4879577956795B795880F911D96952A
:1012D000879597F908959FEF80EC089500240A946C
:1012E0001616170618060906089500240A94121601
:1012F0001306140605060895092E0394000C11F434
:10130000882352F0BB0F40F4BF2B11F460FF04C0E0
:101310006F5F7F4F8F4F9F4F089557FD9058440F39
:10132000551F59F05F3F71F04795880F97FB991F44
:1013300061F09F3F79F08795089512161306140601
:10134000551FF2CF4695F1DF08C01616170618068E
:10135000991FF1CF86957105610508940895E5DF21
:10136000A0F0BEE7B91788F4BB279F3860F41616C3
:10137000B11D672F782F8827985FF7CF86957795CF
:101380006795B11D93959639C8F30895E894BB27E6
:1013900066277727CB0197F908954ADF08F48FEF86
:1013A00008950BD0A9CF9ADF28F09FDF18F095237E
:1013B00009F062CF90CF1124EACFAFDFA0F3959F61
:1013C000D1F3950F50E0551F629FF001729FBB272C
:1013D000F00DB11D639FAA27F00DB11DAA1F649FD8
:1013E0006627B00DA11D661F829F2227B00DA11D8B
:1013F000621F739FB00DA11D621F839FA00D611D11
:10140000221F749F3327A00D611D231F849F600D31
:10141000211D822F762F6A2F11249F5750408AF06A
:10142000E1F088234AF0EE0FFF1FBB1F661F771FF6
:10143000881F91505040A9F79E3F510570F01CCF76
:10144000A6CF5F3FECF3983EDCF3869577956795E2
:10145000B795F795E7959F5FC1F7FE2B880F911D14
:101460009695879597F908952F923F924F925F92A4
:101470006F927F928F929F92AF92BF92CF92DF92A4
:10148000EF92FF920F931F93CF93DF93CDB7DEB709
:10149000CA1BDB0B0FB6F894DEBF0FBECDBF09949D
:1014A0002A88398848885F846E847D848C849B84F4
:1014B000AA84B984C884DF80EE80FD800C811B8102
:1014C000AA81B981CE0FD11D0FB6F894DEBF0FBE31
:1014D000CDBFED010895283008F027E03327DA0169
:1014E000990F311D87FD916000966105710539F4F2
:1014F00032602E5F3D9330E32A95E1F708959F3FD8
:1015000030F080387105610509F03C5F3C5F3D9328
:10151000913008F08068911DDF93CF931F930F9354
:10152000FF92EF92192F987F9695E92F96959695B1
:10153000E90FFF27E653FF4F99273327EE24FF24B7
:10154000A701E70105900894079428F4360FE71ED9
:10155000F81E491F511D660F771F881F991F06949B
:10156000A1F70590079428F4E70EF81E491F561FAF
:10157000C11D770F881F991F661F0694A1F705905C
:10158000079428F4F80E491F561FC71FD11D880F56
:10159000991F661F771F0694A1F70590079420F402
:1015A000490F561FC71FD81F990F661F771F881F27
:1015B0000694A9F784911095177041F0D695C795B8
:1015C00057954795F794E7941A95C1F7E0E7F0E04F
:1015D00068941590159135916591959105907FE2EC
:1015E0007395E118F10A430B560BC90BD009C0F7EC
:1015F000E10CF11E431F561FC91FD01D7EF470332E
:1016000011F48A95E6CFE894015030F0080F0AF4FF
:101610000027021708F4202F2395022F7A3328F091
:1016200079E37D932A95E9F710C07D932A9589F691
:10163000069497956795379517951794E118F10AD1
:10164000430B560BC90BD00998F023957E917395E7
:101650007A3308F070E37C932013B8F77E917061C1
:101660007D9330F0839571E37D9370E32A95E1F7E4
:101670001124EF90FF900F911F91CF91DF91992747
:1016800087FD90950895FC01059061507040011010
:10169000D8F7809590958E0F9F1F0895FC0161509B
:1016A000704001900110D8F7809590958E0F9F1F84
:1016B00008950F931F93CF93DF938C01EB018B81E0
:1016C00081FF1BC082FF0DC02E813F818C819D81D7
:1016D0002817390764F4E881F9810193F983E883D5
:1016E00006C0E885F985802F0995892B31F48E8114
:1016F0009F8101969F838E8302C00FEF1FEFC80169
:10170000DF91CF911F910F910895AEE0B0E0EBE82B
:10171000FBE00C94420A0D891E8986E08C831A83B3
:1017200009838FEF9FE79E838D839E01275E3F4F46
:10173000CE0101966F89788DA9010E9444042F8102
:101740003885020F131FF80110822E96E4E00C94E6
:101750005E0AFA01AA27283051F1203181F1E8947C
:101760006F936E7F6E5F7F4F8F4F9F4FAF4FB1E094
:101770003ED0B4E03CD0670F781F891F9A1FA11D8F
:10178000680F791F8A1F911DA11D6A0F711D811D90
:10179000911DA11D20D009F468943F912AE0269F55
:1017A00011243019305D3193DEF6CF010895462FB4
:1017B0004770405D4193B3E00FD0C9F7F6CF462F95
:1017C0004F70405D4A3318F0495D31FD40524193FE
:1017D00002D0A9F7EACFB4E0A695979587957795BB
:1017E0006795BA95C9F700976105710508959B0142
:1017F000AC010A2E06945795479537952795BA95CB
:10180000C9F7620F731F841F951FA01D0895F894D8
:02181000FFCF08
:10181200526F746174696F6E203D2025302E3166DF
:101822000A0A0D50574D203D2025302E31660A0AF6
:021832000D00A7
:00000001FF
